S00B0000544C432E7372656336
S11300000C942A000C9429010C943F000C943F009A
S11300100C943F000C943F000C943F000C943F0060
S11300200C943F000C943F000C943F000C943F0050
S11300300C943F000C943F000C943F000C943F0040
S11300400C943F000C943F000C943F000C943F0030
S11300500C943F0011241FBECFE5D8E0DEBFCDBF16
S113006010E0A0E6B0E0EEEFF6E002C005900D92DD
S1130070A236B107D9F70E949B010C947D030C941E
S1130080000062E084E40E94690160E081E40E946F
S11300906D0161E081E40E946D0162E081E40E94EF
S11300A06D0160E082E40E946D0161E082E40E94DF
S11300B06D0162E082E40E946D010E9445030E948A
S11300C04F03089560E081E40E94750161E081E4DA
S11300D00E94750162E081E40E94750160E082E49F
S11300E00E94750161E082E40E94750162E082E48D
S11300F00E9475010895809160008230F9F0833088
S113010009F443C08130B9F70E94620060E081E4E1
S11301100E94710162E082E40E947101809160009A
S11301200E94540380916000843021F481E0809324
S11301306000E1CF82E080936000DDCF0E94620026
S11301400E946A03C0E013C080916000843089F08B
S113015061E081E40E94790161E082E40E94790116
S11301600E947903892BE1F30E947303CF5FC431AA
S113017058F380916000843021F481E08093600022
S1130180BACF83E080936000B6CF0E94620062E041
S113019081E40E94710160E082E40E947101809117
S11301A060000E94540380916000843021F481E057
S11301B080936000A0CF81E0809360009CCF0E9478
S11301C0620062E081E40E94710160E082E40E94C6
S11301D0710181E00E9454030895CF930E9462004C
S11301E060E082E40E9471010E946A03C0E00FC0D3
S11301F061E081E40E94790161E082E40E94790176
S11302000E947903892BE1F30E947303CF5FC43109
S113021078F3CF910895CF930E94620062E082E464
S11302200E9471010E946A03C0E00FC061E081E492
S11302300E94790161E082E40E9479010E947903BD
S1130240892BE1F30E947303CF5FC43178F3CF911C
S113025008951F920F920FB60F9211242F933F937C
S11302604F935F936F937F938F939F93AF93BF93BA
S1130270EF93FF93CF93DF931F92CDB7DEB7AE0119
S11302804F5F5F4F62E081E40E94D6028981813032
S113029019F40E94DF0004C00E940B010E94DF00D9
S11302A00E94ED0084E0809360000F90DF91CF9175
S11302B0FF91EF91BF91AF919F918F917F916F913A
S11302C05F914F913F912F910F900FBE0F901F9010
S11302D0189540E00E94A201089541E00E94A20105
S11302E0089541E00E943C02089540E00E943C02CF
S11302F008950F931F93CF93DF931F92CDB7DEB76B
S1130300182F062FAE014F5F5F4F0E94D6028981DE
S1130310813031F440E0602F812F0E943C0205C0FF
S113032041E0602F812F0E943C020F90DF91CF911A
S11303301F910F9108950E9441000E947B0080E06C
S113034090E00895823459F118F4813441F085C065
S1130350833409F444C0843409F460C07EC041117C
S11303600EC02AB381E090E002C0880F991F6A95FD
S1130370E2F7809582238ABB80E090E008954130C3
S113038009F06EC02AB381E090E002C0880F991F83
S11303906A95E2F7822B8ABB80E090E008954111D0
S11303A00EC027B381E090E002C0880F991F6A95C0
S11303B0E2F78095822387BB80E090E00895413086
S11303C009F051C027B381E090E002C0880F991F63
S11303D06A95E2F7822B87BB80E090E00895411193
S11303E00EC024B381E090E002C0880F991F6A9583
S11303F0E2F78095822384BB80E090E00895413049
S1130400A9F524B381E090E002C0880F991F6A9592
S1130410E2F7822B84BB80E090E0089541110EC086
S113042021B381E090E002C0880F991F6A95E2F73A
S11304308095822381BB80E090E008954130C9F427
S113044021B381E090E002C0880F991F6A95E2F71A
S1130450822B81BB80E090E0089584E991E00895C7
S113046084E991E0089584E991E0089584E991E0B4
S1130470089584E991E00895823459F118F481349F
S113048041F085C0833409F444C0843409F460C065
S11304907EC041110EC02BB381E090E002C0880FF2
S11304A0991F6A95E2F7809582238BBB80E090E0E8
S11304B00895413009F06EC02BB381E090E002C092
S11304C0880F991F6A95E2F7822B8BBB80E090E03E
S11304D0089541110EC028B381E090E002C0880F56
S11304E0991F6A95E2F78095822388BB80E090E0AB
S11304F00895413009F051C028B381E090E002C072
S1130500880F991F6A95E2F7822B88BB80E090E000
S1130510089541110EC025B381E090E002C0880F18
S1130520991F6A95E2F78095822385BB80E090E06D
S113053008954130A9F525B381E090E002C0880F09
S1130540991F6A95E2F7822B85BB80E090E00895BD
S113055041110EC022B381E090E002C0880F991FC0
S11305606A95E2F78095822382BB80E090E008954B
S11305704130C9F422B381E090E002C0880F991F92
S11305806A95E2F7822B82BB80E090E0089584E9CB
S113059091E0089584E991E0089584E991E0089553
S11305A084E991E0089584E991E00895823411F199
S11305B018F4813439F066C08334A1F1843409F429
S11305C049C060C079B381E090E09C01062E02C06E
S11305D0220F331F0A94E2F7872F90E0822393239C
S11305E002C0959587956A95E2F7FA01808380E0C9
S11305F090E0089576B381E090E09C01062E02C05D
S1130600220F331F0A94E2F7872F90E0822393236B
S113061002C0959587956A95E2F7FA01808380E098
S113062090E0089573B381E090E09C01062E02C02F
S1130630220F331F0A94E2F7872F90E0822393233B
S113064002C0959587956A95E2F7FA01808380E068
S113065090E0089570B381E090E09C01062E02C002
S1130660220F331F0A94E2F7872F90E0822393230B
S113067002C0959587956A95E2F7FA01808380E038
S113068090E0089584E991E00895789485B78360B3
S113069085BF8BB780648BBF80E090E0089513BE64
S11306A012BE80E090E0089592B79C6092BF93B729
S11306B0956093BF20E009C0843049F008B600FE7D
S11306C0FDCF98B7916098BF2F5F2431A8F380E0E5
S11306D090E0089582B78C6082BF83B7856083BF42
S11306E080E090E0089588B7816088BF80E090E062
S11106F0089588B7817090E00895F894FFCFC4
S10506FE0100F5
S9030000FC
